{
  "_format": "hh-sol-artifact-1",
  "contractName": "Bottle",
  "sourceName": "contracts/Bottle.sol",
  "abi": [
    {
      "inputs": [
        {
          "internalType": "string",
          "name": "_typeOfGrape",
          "type": "string"
        },
        {
          "internalType": "uint256",
          "name": "_bottleID",
          "type": "uint256"
        }
      ],
      "stateMutability": "nonpayable",
      "type": "constructor"
    },
    {
      "inputs": [],
      "name": "getAmountOfSunnyHours",
      "outputs": [
        {
          "internalType": "uint256",
          "name": "",
          "type": "uint256"
        }
      ],
      "stateMutability": "view",
      "type": "function"
    },
    {
      "inputs": [],
      "name": "getBottleID",
      "outputs": [
        {
          "internalType": "uint256",
          "name": "",
          "type": "uint256"
        }
      ],
      "stateMutability": "view",
      "type": "function"
    },
    {
      "inputs": [],
      "name": "getTimeOfBottling",
      "outputs": [
        {
          "internalType": "string",
          "name": "",
          "type": "string"
        }
      ],
      "stateMutability": "view",
      "type": "function"
    },
    {
      "inputs": [],
      "name": "getTimeOfHarvest",
      "outputs": [
        {
          "internalType": "string",
          "name": "",
          "type": "string"
        }
      ],
      "stateMutability": "view",
      "type": "function"
    },
    {
      "inputs": [],
      "name": "getTypeOfGrape",
      "outputs": [
        {
          "internalType": "string",
          "name": "",
          "type": "string"
        }
      ],
      "stateMutability": "view",
      "type": "function"
    },
    {
      "inputs": [
        {
          "internalType": "string",
          "name": "_timeOfBottling",
          "type": "string"
        }
      ],
      "name": "updateBottling",
      "outputs": [],
      "stateMutability": "nonpayable",
      "type": "function"
    },
    {
      "inputs": [
        {
          "internalType": "string",
          "name": "_timeOfHarvest",
          "type": "string"
        }
      ],
      "name": "updateHarvest",
      "outputs": [],
      "stateMutability": "nonpayable",
      "type": "function"
    },
    {
      "inputs": [
        {
          "internalType": "uint256",
          "name": "_amountOfSunnyHours",
          "type": "uint256"
        }
      ],
      "name": "updateHours",
      "outputs": [],
      "stateMutability": "nonpayable",
      "type": "function"
    }
  ],
  "bytecode": "0x608060405260006002556040518060400160405280601181526020017f4e6f742068617276657374656420796574000000000000000000000000000000815250600390816200004f919062000365565b506040518060400160405280600f81526020017f4e6f7420626f74746c65642079657400000000000000000000000000000000008152506004908162000096919062000365565b50348015620000a457600080fd5b5060405162000fad38038062000fad8339818101604052810190620000ca9190620005e1565b8160009081620000db919062000365565b5080600181905550505062000647565b600081519050919050565b7f4e487b7100000000000000000000000000000000000000000000000000000000600052604160045260246000fd5b7f4e487b7100000000000000000000000000000000000000000000000000000000600052602260045260246000fd5b600060028204905060018216806200016d57607f821691505b60208210810362000183576200018262000125565b5b50919050565b60008190508160005260206000209050919050565b60006020601f8301049050919050565b600082821b905092915050565b600060088302620001ed7fffffffffffffffffffffffffffffffffffffffffffffffffffffffffffffffff82620001ae565b620001f98683620001ae565b95508019841693508086168417925050509392505050565b6000819050919050565b6000819050919050565b600062000246620002406200023a8462000211565b6200021b565b62000211565b9050919050565b6000819050919050565b620002628362000225565b6200027a62000271826200024d565b848454620001bb565b825550505050565b600090565b6200029162000282565b6200029e81848462000257565b505050565b5b81811015620002c657620002ba60008262000287565b600181019050620002a4565b5050565b601f8211156200031557620002df8162000189565b620002ea846200019e565b81016020851015620002fa578190505b6200031262000309856200019e565b830182620002a3565b50505b505050565b600082821c905092915050565b60006200033a600019846008026200031a565b1980831691505092915050565b600062000355838362000327565b9150826002028217905092915050565b6200037082620000eb565b67ffffffffffffffff8111156200038c576200038b620000f6565b5b62000398825462000154565b620003a5828285620002ca565b600060209050601f831160018114620003dd5760008415620003c8578287015190505b620003d4858262000347565b86555062000444565b601f198416620003ed8662000189565b60005b828110156200041757848901518255600182019150602085019450602081019050620003f0565b8683101562000437578489015162000433601f89168262000327565b8355505b6001600288020188555050505b505050505050565b6000604051905090565b600080fd5b600080fd5b600080fd5b600080fd5b6000601f19601f8301169050919050565b62000486826200046a565b810181811067ffffffffffffffff82111715620004a857620004a7620000f6565b5b80604052505050565b6000620004bd6200044c565b9050620004cb82826200047b565b919050565b600067ffffffffffffffff821115620004ee57620004ed620000f6565b5b620004f9826200046a565b9050602081019050919050565b60005b838110156200052657808201518184015260208101905062000509565b60008484015250505050565b6000620005496200054384620004d0565b620004b1565b90508281526020810184848401111562000568576200056762000465565b5b6200057584828562000506565b509392505050565b600082601f83011262000595576200059462000460565b5b8151620005a784826020860162000532565b91505092915050565b620005bb8162000211565b8114620005c757600080fd5b50565b600081519050620005db81620005b0565b92915050565b60008060408385031215620005fb57620005fa62000456565b5b600083015167ffffffffffffffff8111156200061c576200061b6200045b565b5b6200062a858286016200057d565b92505060206200063d85828601620005ca565b9150509250929050565b61095680620006576000396000f3fe608060405234801561001057600080fd5b50600436106100885760003560e01c80638ffc0d2f1161005b5780638ffc0d2f14610105578063a162532614610121578063d170c3981461013d578063fe8c5dd61461015957610088565b806321a0d0d71461008d5780632ab06b04146100ab5780637f3642b7146100c957806384b5df15146100e7575b600080fd5b610095610177565b6040516100a2919061038a565b60405180910390f35b6100b3610181565b6040516100c09190610435565b60405180910390f35b6100d1610213565b6040516100de9190610435565b60405180910390f35b6100ef6102a5565b6040516100fc9190610435565b60405180910390f35b61011f600480360381019061011a9190610497565b610337565b005b61013b600480360381019061013691906105f9565b610341565b005b610157600480360381019061015291906105f9565b610354565b005b610161610367565b60405161016e919061038a565b60405180910390f35b6000600254905090565b60606004805461019090610671565b80601f01602080910402602001604051908101604052809291908181526020018280546101bc90610671565b80156102095780601f106101de57610100808354040283529160200191610209565b820191906000526020600020905b8154815290600101906020018083116101ec57829003601f168201915b5050505050905090565b60606003805461022290610671565b80601f016020809104026020016040519081016040528092919081815260200182805461024e90610671565b801561029b5780601f106102705761010080835404028352916020019161029b565b820191906000526020600020905b81548152906001019060200180831161027e57829003601f168201915b5050505050905090565b6060600080546102b490610671565b80601f01602080910402602001604051908101604052809291908181526020018280546102e090610671565b801561032d5780601f106103025761010080835404028352916020019161032d565b820191906000526020600020905b81548152906001019060200180831161031057829003601f168201915b5050505050905090565b8060028190555050565b8060039081610350919061084e565b5050565b8060049081610363919061084e565b5050565b6000600154905090565b6000819050919050565b61038481610371565b82525050565b600060208201905061039f600083018461037b565b92915050565b600081519050919050565b600082825260208201905092915050565b60005b838110156103df5780820151818401526020810190506103c4565b60008484015250505050565b6000601f19601f8301169050919050565b6000610407826103a5565b61041181856103b0565b93506104218185602086016103c1565b61042a816103eb565b840191505092915050565b6000602082019050818103600083015261044f81846103fc565b905092915050565b6000604051905090565b600080fd5b600080fd5b61047481610371565b811461047f57600080fd5b50565b6000813590506104918161046b565b92915050565b6000602082840312156104ad576104ac610461565b5b60006104bb84828501610482565b91505092915050565b600080fd5b600080fd5b7f4e487b7100000000000000000000000000000000000000000000000000000000600052604160045260246000fd5b610506826103eb565b810181811067ffffffffffffffff82111715610525576105246104ce565b5b80604052505050565b6000610538610457565b905061054482826104fd565b919050565b600067ffffffffffffffff821115610564576105636104ce565b5b61056d826103eb565b9050602081019050919050565b82818337600083830152505050565b600061059c61059784610549565b61052e565b9050828152602081018484840111156105b8576105b76104c9565b5b6105c384828561057a565b509392505050565b600082601f8301126105e0576105df6104c4565b5b81356105f0848260208601610589565b91505092915050565b60006020828403121561060f5761060e610461565b5b600082013567ffffffffffffffff81111561062d5761062c610466565b5b610639848285016105cb565b91505092915050565b7f4e487b7100000000000000000000000000000000000000000000000000000000600052602260045260246000fd5b6000600282049050600182168061068957607f821691505b60208210810361069c5761069b610642565b5b50919050565b60008190508160005260206000209050919050565b60006020601f8301049050919050565b600082821b905092915050565b6000600883026107047fffffffffffffffffffffffffffffffffffffffffffffffffffffffffffffffff826106c7565b61070e86836106c7565b95508019841693508086168417925050509392505050565b6000819050919050565b600061074b61074661074184610371565b610726565b610371565b9050919050565b6000819050919050565b61076583610730565b61077961077182610752565b8484546106d4565b825550505050565b600090565b61078e610781565b61079981848461075c565b505050565b5b818110156107bd576107b2600082610786565b60018101905061079f565b5050565b601f821115610802576107d3816106a2565b6107dc846106b7565b810160208510156107eb578190505b6107ff6107f7856106b7565b83018261079e565b50505b505050565b600082821c905092915050565b600061082560001984600802610807565b1980831691505092915050565b600061083e8383610814565b9150826002028217905092915050565b610857826103a5565b67ffffffffffffffff8111156108705761086f6104ce565b5b61087a8254610671565b6108858282856107c1565b600060209050601f8311600181146108b857600084156108a6578287015190505b6108b08582610832565b865550610918565b601f1984166108c6866106a2565b60005b828110156108ee578489015182556001820191506020850194506020810190506108c9565b8683101561090b5784890151610907601f891682610814565b8355505b6001600288020188555050505b50505050505056fea26469706673582212208025e682dc40a2c0e61dd0076827b3e73e218a94f1a65b57dacbf4003be0533264736f6c63430008180033",
  "linkReferences": {},
  "deployedLinkReferences": {}
}